:100000000C942A000C943F000C943F000C943F0089
:100010000C943F000C943F000C943F000C943F0064
:100020000C943F000C943F000C943F000C943F0054
:100030000C943F000C943F000C943F000C943F0044
:100040000C943F000C943F000C943F000C943F0034
:100050000C943F0011241FBECFE5D8E0DEBFCDBF1A
:1000600010E0A0E6B0E0E0E5F1E002C005900D92FE
:10007000AA36B107D9F70E9467000C94A6000C9429
:100080000000823459F018F4813431F0089583343B
:1000900039F0843439F008956ABB089567BB089538
:1000A00064BB089561BB0895823459F018F481341B
:1000B00031F00895833439F0843439F008956BBBFE
:1000C000089568BB089565BB089560BB089583E4F7
:1000D0000E947D00C0E00EC06C2F83E40E9481006E
:1000E0002FEF89E698E1215080409040E1F700C071
:1000F0000000CF5FCA3080F3EDCF6FEF0E94410068
:100100000895CF93DF93CDB7DEB72A970FB6F89453
:10011000DEBF0FBECDBF9AE0E0E6F0E0DE01119653
:1001200001900D929A95E1F7E1E0F0E0EC0FFD1FF0
:10013000E60FF11D60810E9454002A960FB6F894D4
:10014000DEBF0FBECDBFDF91CF910895F894FFCFF2
:0A0150003F065B4F666D7D477F6F31
:00000001FF
