:100000000C942A000C9434000C9434000C943400AA
:100010000C9434000C9434000C9434000C94340090
:100020000C9434000C9434000C9434000C94340080
:100030000C9434000C9434000C9434000C94340070
:100040000C9434000C9434000C9434000C94340060
:100050000C94340011241FBECFE5D8E0DEBFCDBF25
:100060000E9486010C94A7010C94000040E00E94BD
:100070003D0008950E941D010895823419F118F47D
:10008000813439F008958334B1F1843409F44CC0DB
:100090000895413059F42AB381E090E002C0880FFE
:1000A000991F6A95E2F7822B8ABB08952AB381E0F3
:1000B00090E002C0880F991F6A95E2F7809582232D
:1000C0008ABB0895413059F42AB381E090E002C020
:1000D000880F991F6A95E2F7822B8ABB08952AB38D
:1000E00081E090E002C0880F991F6A95E2F7809541
:1000F00082238ABB0895413059F42AB381E090E00D
:1001000002C0880F991F6A95E2F7822B8ABB089577
:100110002AB381E090E002C0880F991F6A95E2F748
:10012000809582238ABB0895413059F42AB381E037
:1001300090E002C0880F991F6A95E2F7822B8ABB74
:1001400008952AB381E090E002C0880F991F6A9554
:10015000E2F7809582238ABB0895823419F118F45E
:10016000813439F008958334B1F1843409F44CC0FA
:100170000895413059F42BB381E090E002C0880F1C
:10018000991F6A95E2F7822B8BBB08952BB381E010
:1001900090E002C0880F991F6A95E2F7809582234C
:1001A0008BBB0895413059F428B381E090E002C040
:1001B000880F991F6A95E2F7822B88BB089528B3B0
:1001C00081E090E002C0880F991F6A95E2F7809560
:1001D000822388BB0895413059F425B381E090E033
:1001E00002C0880F991F6A95E2F7822B85BB08959C
:1001F00025B381E090E002C0880F991F6A95E2F76D
:100200008095822385BB0895413059F420B381E065
:1002100090E002C0880F991F6A95E2F7822B80BB9D
:10022000089520B381E090E002C0880F991F6A957D
:10023000E2F78095822380BB08958234E9F018F4B8
:10024000813431F055C0833459F18434E9F150C020
:1002500049B381E090E09C01062E02C0220F331FBB
:100260000A94E2F7842F90E08223932302C09595AD
:1002700087956A95E2F7089546B381E090E09C0186
:10028000062E02C0220F331F0A94E2F7842F90E05B
:100290008223932302C0959587956A95E2F7089586
:1002A00043B381E090E09C01062E02C0220F331F71
:1002B0000A94E2F7842F90E08223932302C095955D
:1002C00087956A95E2F7089542B381E090E09C013A
:1002D000062E02C0220F331F0A94E2F7842F90E00B
:1002E0008223932302C0959587956A95E2F7089536
:1002F00080E0089541E00E943D00089541E00E94A1
:10030000AD00089540E00E94AD00089560E083E4F0
:100310000E94360060E081E40E947A0160E083E49C
:100320000E943A00813029F460E081E40E947E015D
:1003300004C060E081E40E9482012FE78AE196E038
:10034000215080409040E1F700C00000E7CFF894D2
:02035000FFCFDD
:00000001FF
