:100000000C942A000C9434000C9434000C943400AA
:100010000C9434000C9434000C9434000C94340090
:100020000C9434000C9434000C9434000C94340080
:100030000C9434000C9434000C9434000C94340070
:100040000C9434000C9434000C9434000C94340060
:100050000C94340011241FBECFE5D8E0DEBFCDBF25
:100060000E9492010C94BF010C94000040E00E9499
:10007000490008950E942901089541E00E94490025
:10008000089541E00E94B900089540E00E94B9003F
:100090000895823419F118F4813439F008958334C5
:1000A000B1F1843409F44CC00895413059F42AB3B5
:1000B00081E090E002C0880F991F6A95E2F7822BD9
:1000C0008ABB08952AB381E090E002C0880F991F8F
:1000D0006A95E2F7809582238ABB0895413059F4EE
:1000E00027B381E090E002C0880F991F6A95E2F77C
:1000F000822B87BB089527B381E090E002C0880F70
:10010000991F6A95E2F78095822387BB0895413055
:1001100059F424B381E090E002C0880F991F6A95DA
:10012000E2F7822B84BB089524B381E090E002C003
:10013000880F991F6A95E2F78095822384BB089502
:10014000413059F421B381E090E002C0880F991F3B
:100150006A95E2F7822B81BB089521B381E090E09C
:1001600002C0880F991F6A95E2F78095822381BBB0
:100170000895823419F118F4813439F008958334E4
:10018000B1F1843409F44CC00895413059F42BB3D3
:1001900081E090E002C0880F991F6A95E2F7822BF8
:1001A0008BBB08952BB381E090E002C0880F991FAC
:1001B0006A95E2F7809582238BBB0895413059F40C
:1001C00028B381E090E002C0880F991F6A95E2F79A
:1001D000822B88BB089528B381E090E002C0880F8D
:1001E000991F6A95E2F78095822388BB0895413074
:1001F00059F425B381E090E002C0880F991F6A95F9
:10020000E2F7822B85BB089525B381E090E002C020
:10021000880F991F6A95E2F78095822385BB089520
:10022000413059F422B381E090E002C0880F991F59
:100230006A95E2F7822B82BB089522B381E090E0B9
:1002400002C0880F991F6A95E2F78095822382BBCE
:1002500008958234E9F018F4813431F055C08334C4
:1002600059F18434E9F150C049B381E090E09C0138
:10027000062E02C0220F331F0A94E2F7842F90E06B
:100280008223932302C0959587956A95E2F7089596
:1002900046B381E090E09C01062E02C0220F331F7E
:1002A0000A94E2F7842F90E08223932302C095956D
:1002B00087956A95E2F7089543B381E090E09C0149
:1002C000062E02C0220F331F0A94E2F7842F90E01B
:1002D0008223932302C0959587956A95E2F7089546
:1002E00040B381E090E09C01062E02C0220F331F34
:1002F0000A94E2F7842F90E08223932302C095951D
:1003000087956A95E2F7089580E0089541E00E949C
:100310004900089541E00E94B900089540E00E941C
:10032000B900089560E083E40E94360067E081E44C
:100330000E943D0060E081E40E94860160E083E469
:100340000E943A00813049F467E081E40E94410054
:1003500060E081E40E948A0108C067E081E40E94B5
:10036000450060E081E40E948E012FE78AE196E07B
:10037000215080409040E1F700C00000DFCFF894AA
:02038000FFCFAD
:00000001FF
