S01D0000626C696E6B696E67206C6564732063617374696E672E73726563E8
S11300000C942A000C9434000C9434000C943400A6
S11300100C9434000C9434000C9434000C9434008C
S11300200C9434000C9434000C9434000C9434007C
S11300300C9434000C9434000C9434000C9434006C
S11300400C9434000C9434000C9434000C9434005C
S11300500C94340011241FBECFE5D8E0DEBFCDBF21
S11300600E9436000C944E000C9400008DEF8ABB65
S11300708DEF8BBB2FEF89E698E1215080409040B3
S1130080E1F700C000001BBA2FEF89E698E1215088
S113009080409040E1F700C00000EACFF894FFCF21
S9030000FC
