S016000030315F426C696E6B696E674C65642E737265630B
S11300000C942A000C9434000C9434000C943400A6
S11300100C9434000C9434000C9434000C9434008C
S11300200C9434000C9434000C9434000C9434007C
S11300300C9434000C9434000C9434000C9434006C
S11300400C9434000C9434000C9434000C9434005C
S11300500C94340011241FBECFE5D8E0DEBFCDBF21
S11300600E9422010C9441010C940000823419F185
S113007018F4813439F008958334B1F1843409F4E7
S11300804CC00895413059F42AB381E090E002C095
S1130090880F991F6A95E2F7822B8ABB08952AB3C9
S11300A081E090E002C0880F991F6A95E2F780957D
S11300B082238ABB0895413059F42AB381E090E049
S11300C002C0880F991F6A95E2F7822B8ABB0895B4
S11300D02AB381E090E002C0880F991F6A95E2F785
S11300E0809582238ABB0895413059F42AB381E074
S11300F090E002C0880F991F6A95E2F7822B8ABBB1
S113010008952AB381E090E002C0880F991F6A9590
S1130110E2F7809582238ABB0895413059F42AB3CB
S113012081E090E002C0880F991F6A95E2F7822B64
S11301308ABB08952AB381E090E002C0880F991F1A
S11301406A95E2F7809582238ABB0895823419F177
S113015018F4813439F008958334B1F1843409F406
S11301604CC00895413059F42BB381E090E002C0B3
S1130170880F991F6A95E2F7822B8BBB08952BB3E6
S113018081E090E002C0880F991F6A95E2F780959C
S113019082238BBB0895413059F428B381E090E069
S11301A002C0880F991F6A95E2F7822B88BB0895D5
S11301B028B381E090E002C0880F991F6A95E2F7A6
S11301C08095822388BB0895413059F425B381E09A
S11301D090E002C0880F991F6A95E2F7822B85BBD5
S11301E0089525B381E090E002C0880F991F6A95B5
S11301F0E2F78095822385BB0895413059F420B3FA
S113020081E090E002C0880F991F6A95E2F7822B83
S113021080BB089520B381E090E002C0880F991F4D
S11302206A95E2F78095822380BB089541E00E949D
S11302303600089541E00E94A600089540E00E941F
S1130240A600089560E081E40E94160160E081E464
S11302500E941A012FEF89E698E1215080409040D6
S1130260E1F700C0000060E081E40E941E012FEF6E
S113027089E698E1215080409040E1F700C00000F9
S1090280E5CFF894FFCF66
S9030000FC
