:100000000C942A000C943F000C943F000C943F0089
:100010000C943F000C943F000C943F000C943F0064
:100020000C943F000C943F000C943F000C943F0054
:100030000C943F000C943F000C943F000C943F0044
:100040000C943F000C943F000C943F000C943F0034
:100050000C943F0011241FBECFE5D8E0DEBFCDBF1A
:1000600010E0A0E6B0E0ECE8F4E002C005900D92EC
:10007000AA36B107D9F70E947C010C9444020C9473
:100080000000823419F118F4813439F00895833472
:10009000B1F1843409F44CC00895413059F42AB3C5
:1000A00081E090E002C0880F991F6A95E2F7822BE9
:1000B0008ABB08952AB381E090E002C0880F991F9F
:1000C0006A95E2F7809582238ABB0895413059F4FE
:1000D00027B381E090E002C0880F991F6A95E2F78C
:1000E000822B87BB089527B381E090E002C0880F80
:1000F000991F6A95E2F78095822387BB0895413066
:1001000059F424B381E090E002C0880F991F6A95EA
:10011000E2F7822B84BB089524B381E090E002C013
:10012000880F991F6A95E2F78095822384BB089512
:10013000413059F421B381E090E002C0880F991F4B
:100140006A95E2F7822B81BB089521B381E090E0AC
:1001500002C0880F991F6A95E2F78095822381BBC0
:100160000895823419F118F4813439F008958334F4
:10017000B1F1843409F44CC00895413059F42BB3E3
:1001800081E090E002C0880F991F6A95E2F7822B08
:100190008BBB08952BB381E090E002C0880F991FBC
:1001A0006A95E2F7809582238BBB0895413059F41C
:1001B00028B381E090E002C0880F991F6A95E2F7AA
:1001C000822B88BB089528B381E090E002C0880F9D
:1001D000991F6A95E2F78095822388BB0895413084
:1001E00059F425B381E090E002C0880F991F6A9509
:1001F000E2F7822B85BB089525B381E090E002C031
:10020000880F991F6A95E2F78095822385BB089530
:10021000413059F422B381E090E002C0880F991F69
:100220006A95E2F7822B82BB089522B381E090E0C9
:1002300002C0880F991F6A95E2F78095822382BBDE
:100240000895823459F018F4813431F008958334DC
:1002500039F0843439F008956ABB089567BB089576
:1002600064BB089561BB0895823459F018F4813459
:1002700031F00895833439F0843439F008956BBB3C
:10028000089568BB089565BB089562BB089541E079
:100290000E944100089541E00E94B100089540E0AD
:1002A0000E94B10008956FEF0E9421010895CF933D
:1002B000DF93CDB7DEB72A970FB6F894DEBF0FBE37
:1002C000CDBF9AE0E0E6F0E0DE01119601900D92DC
:1002D0009A95E1F7E1E0F0E0EC0FFD1FE60FF11D6C
:1002E00060810E9434012A960FB6F894DEBF0FBEDB
:1002F000CDBFDF91CF91089584E40E94530183E440
:100300000E94530160E081E40E94470161E081E4C2
:100310000E94470162E081E40E944701CEE1D0E003
:1003200087C062E081E40E944F0160E081E40E94A6
:100330004B01CE016AE070E00E941C02162F682F6C
:1003400083E40E945701612F84E40E9457012FEF3C
:1003500089E698E1215080409040E1F700C000001C
:10036000209709F064C06C2F83E40E9457016C2F22
:1003700084E40E9457010FE010E056C060E081E481
:100380000E944F0161E081E40E944B01C8016AE0D4
:1003900070E00E941C02F62E682F83E40E94570131
:1003A0006F2D84E40E9457012FEF89E698E12150D8
:1003B00080409040E1F700C000000115110591F563
:1003C000602F83E40E945701602F84E40E9457014C
:1003D0000F2EF3E2EF2EF12CF02D22C061E081E42C
:1003E0000E944F0162E081E40E944B01C7016AE074
:1003F00070E00E941C02D62E682F83E40E945701F1
:100400006D2D84E40E9457012FEF89E698E1215079
:1004100080409040E1F700C0000021E0E21AF108BE
:10042000FF20E4F60150110911230CF0A7CF21970A
:10043000DD230CF076CF72CF97FB072E16F40094D5
:1004400007D077FD09D00E94300207FC05D03EF4AA
:10045000909581959F4F0895709561957F4F089570
:10046000AA1BBB1B51E107C0AA1FBB1FA617B707DA
:1004700010F0A61BB70B881F991F5A95A9F78095F6
:0C0480009095BC01CD010895F894FFCFC9
:0A048C003F065B4F666D7D477F6FF2
:00000001FF
