:100000000C942A000C943F000C943F000C943F0089
:100010000C943F000C943F000C943F000C943F0064
:100020000C943F000C943F000C943F000C943F0054
:100030000C943F000C943F000C943F000C943F0044
:100040000C943F000C943F000C943F000C943F0034
:100050000C943F0011241FBECFE5D8E0DEBFCDBF1A
:1000600010E0A0E6B0E0E6E1F4E002C005900D92F9
:10007000AA36B107D9F70E9453010C9409020C94D7
:100080000000823419F118F4813439F00895833472
:10009000B1F1843409F44CC00895413059F42AB3C5
:1000A00081E090E002C0880F991F6A95E2F7822BE9
:1000B0008ABB08952AB381E090E002C0880F991F9F
:1000C0006A95E2F7809582238ABB0895413059F4FE
:1000D00027B381E090E002C0880F991F6A95E2F78C
:1000E000822B87BB089527B381E090E002C0880F80
:1000F000991F6A95E2F78095822387BB0895413066
:1001000059F424B381E090E002C0880F991F6A95EA
:10011000E2F7822B84BB089524B381E090E002C013
:10012000880F991F6A95E2F78095822384BB089512
:10013000413059F421B381E090E002C0880F991F4B
:100140006A95E2F7822B81BB089521B381E090E0AC
:1001500002C0880F991F6A95E2F78095822381BBC0
:100160000895823419F118F4813439F008958334F4
:10017000B1F1843409F44CC00895413059F42BB3E3
:1001800081E090E002C0880F991F6A95E2F7822B08
:100190008BBB08952BB381E090E002C0880F991FBC
:1001A0006A95E2F7809582238BBB0895413059F41C
:1001B00028B381E090E002C0880F991F6A95E2F7AA
:1001C000822B88BB089528B381E090E002C0880F9D
:1001D000991F6A95E2F78095822388BB0895413084
:1001E00059F425B381E090E002C0880F991F6A9509
:1001F000E2F7822B85BB089525B381E090E002C031
:10020000880F991F6A95E2F78095822385BB089530
:10021000413059F420B381E090E002C0880F991F6B
:100220006A95E2F7822B80BB089520B381E090E0CD
:1002300002C0880F991F6A95E2F78095822380BBE0
:100240000895823459F018F4813431F008958334DC
:1002500039F0843439F008956ABB089567BB089576
:1002600064BB089561BB0895823459F018F4813459
:1002700031F00895833439F0843439F008956BBB3C
:10028000089568BB089565BB089560BB089541E07B
:100290000E944100089541E00E94B100089540E0AD
:1002A0000E94B100089584E40E94E00183E40E946A
:1002B000E00160E081E40E94470161E081E40E9486
:1002C000470162E081E40E944701C9E0D0E074C0C8
:1002D00062E081E40E944F0160E081E40E944B01F2
:1002E0006C2F83E40E94E4016C2F84E40E94E401FB
:1002F0002FEF89E698E1215080409040E1F700C05F
:100300000000209709F057C06C2F83E40E94E4019D
:100310006C2F84E40E94E40105E010E049C060E035
:1003200081E40E944F0161E081E40E944B01602F53
:1003300083E40E94E401602F84E40E94E4012FEF33
:1003400089E698E1215080409040E1F700C000002C
:100350000115110559F5602F83E40E94E401602F17
:1003600084E40E94E4016894EE24E3F8F12C1CC0BC
:1003700061E081E40E944F0162E081E40E944B0150
:100380006E2D84E40E94E4016E2D83E40E94E4015A
:100390002FEF89E698E1215080409040E1F700C0BE
:1003A000000021E0E21AF108FF2014F701501109C2
:1003B00011230CF0B4CF2197DD230CF089CF85CF2A
:1003C0006FEF0E9421010895CF93DF93CDB7DEB781
:1003D0002A970FB6F894DEBF0FBECDBF9AE0E0E6D5
:1003E000F0E0DE01119601900D929A95E1F7E1E0BF
:1003F000F0E0EC0FFD1FE60FF11D60810E9434015B
:100400002A960FB6F894DEBF0FBECDBFDF91CF9115
:060410000895F894FFCFEF
:0A0416003F065B4F666D7D477F6F68
:00000001FF
