:100000000C942A000C9434000C9434000C943400AA
:100010000C9434000C9434000C9434000C94340090
:100020000C9434000C9434000C9434000C94340080
:100030000C9434000C9434000C9434000C94340070
:100040000C9434000C9434000C9434000C94340060
:100050000C94340011241FBECFE5D8E0DEBFCDBF25
:100060000E9422010C9462010C940000823419F168
:1000700018F4813439F008958334B1F1843409F4EB
:100080004CC00895413059F42AB381E090E002C099
:10009000880F991F6A95E2F7822B8ABB08952AB3CD
:1000A00081E090E002C0880F991F6A95E2F7809581
:1000B00082238ABB0895413059F427B381E090E050
:1000C00002C0880F991F6A95E2F7822B87BB0895BB
:1000D00027B381E090E002C0880F991F6A95E2F78C
:1000E0008095822387BB0895413059F424B381E081
:1000F00090E002C0880F991F6A95E2F7822B84BBBB
:10010000089524B381E090E002C0880F991F6A959A
:10011000E2F78095822384BB0895413059F421B3DE
:1001200081E090E002C0880F991F6A95E2F7822B68
:1001300081BB089521B381E090E002C0880F991F30
:100140006A95E2F78095822381BB0895823419F184
:1001500018F4813439F008958334B1F1843409F40A
:100160004CC00895413059F42BB381E090E002C0B7
:10017000880F991F6A95E2F7822B8BBB08952BB3EA
:1001800081E090E002C0880F991F6A95E2F78095A0
:1001900082238BBB0895413059F428B381E090E06D
:1001A00002C0880F991F6A95E2F7822B88BB0895D9
:1001B00028B381E090E002C0880F991F6A95E2F7AA
:1001C0008095822388BB0895413059F425B381E09E
:1001D00090E002C0880F991F6A95E2F7822B85BBD9
:1001E000089525B381E090E002C0880F991F6A95B9
:1001F000E2F78095822385BB0895413059F422B3FC
:1002000081E090E002C0880F991F6A95E2F7822B87
:1002100082BB089522B381E090E002C0880F991F4D
:100220006A95E2F78095822382BB089541E00E949F
:100230003600089541E00E94A600089540E00E9423
:10024000A600089560E081E40E94160161E081E467
:100250000E94160162E081E40E94160160E081E4E0
:100260000E941A012FEF83E294EF215080409040CA
:10027000E1F700C0000060E081E40E941E0161E03F
:1002800081E40E941A012FEF81E19AE7215080401A
:100290009040E1F700C0000061E081E40E941E018F
:1002A00062E081E40E941A012FEF83E294EF215073
:1002B00080409040E1F700C0000062E081E40E94CD
:0802C0001E01CCCFF894FFCF22
:00000001FF
