:100000000C942A000C943F000C943F000C943F0089
:100010000C943F000C943F000C943F000C943F0064
:100020000C943F000C943F000C943F000C943F0054
:100030000C943F000C943F000C943F000C943F0044
:100040000C943F000C943F000C943F000C943F0034
:100050000C943F0011241FBECFE5D8E0DEBFCDBF1A
:1000600010E0A0E6B0E0E4EBF2E002C005900D92F3
:10007000A036B107D9F70E944D000C9458010C949A
:10008000000041E00E947800089541E00E94E800ED
:10009000089540E00E94E800089566E084E40E942C
:1000A000410067E084E40E94410066E084E40E942D
:1000B000450067E084E40E9445002FEF81E19AE764
:1000C000215080409040E1F700C0000066E084E4E9
:1000D0000E94490067E084E40E9449002FEF81E11B
:1000E0009AE7215080409040E1F700C00000DDCF4A
:1000F000823419F118F4813439F008958334B1F160
:10010000843409F44CC00895413059F42AB381E095
:1001100090E002C0880F991F6A95E2F7822B8ABB94
:1001200008952AB381E090E002C0880F991F6A9574
:10013000E2F7809582238ABB0895413059F427B3B2
:1001400081E090E002C0880F991F6A95E2F7822B48
:1001500087BB089527B381E090E002C0880F991F04
:100160006A95E2F78095822387BB0895413059F460
:1001700024B381E090E002C0880F991F6A95E2F7EE
:10018000822B84BB089524B381E090E002C0880FE5
:10019000991F6A95E2F78095822384BB08954130C8
:1001A00059F421B381E090E002C0880F991F6A954D
:1001B000E2F7822B81BB089521B381E090E002C079
:1001C000880F991F6A95E2F78095822381BB089575
:1001D000823419F118F4813439F008958334B1F17F
:1001E000843409F44CC00895413059F42BB381E0B4
:1001F00090E002C0880F991F6A95E2F7822B8BBBB3
:1002000008952BB381E090E002C0880F991F6A9592
:10021000E2F7809582238BBB0895413059F428B3CF
:1002200081E090E002C0880F991F6A95E2F7822B67
:1002300088BB089528B381E090E002C0880F991F21
:100240006A95E2F78095822388BB0895413059F47E
:1002500025B381E090E002C0880F991F6A95E2F70C
:10026000822B85BB089525B381E090E002C0880F02
:10027000991F6A95E2F78095822385BB08954130E6
:1002800059F422B381E090E002C0880F991F6A956B
:10029000E2F7822B82BB089522B381E090E002C096
:1002A000880F991F6A95E2F78095822382BB089593
:0402B000F894FFCFF0
:00000001FF
